:020000040000FA
:0400000090EF07F086
:04001800F4EF05F00C
:06002A00D9CFE5FFE1CF94
:10003000D9FF00C0E5FF01C0E5FF02C0E5FF03C036
:10004000E5FF04C0E5FF05C0E5FF06C0E5FF0201CE
:100050002E510EE002012E51010A26E002012E511E
:10006000020A30E002012E51030A01E14ED092D083
:10007000010E016E820E006E800E026E0250E56E61
:100080000150E56E0050E56E46EC02F0006EF3CFD5
:1000900001F0030EE12600500101806F01500101C3
:1000A000816F010E006E77D0C4EC06F0016EF3CFC5
:1000B00002F001500101806F02500101816F010EB9
:1000C000006E69D0016A026A036A046A000E025C6B
:1000D00002E1500E015C16E2820E0324056E010E51
:1000E0000420066E05C0E9FF06C0EAFF01C0EEFF6E
:1000F00002C0EFFF020E0326D8B0042A012AD8B0AE
:10010000022AE4D7010E006E46D0010E026E820E66
:10011000016E800E036E80CFE5FF01C0E9FF02C0D3
:10012000F3FF0350BCEC07F00150010F046E000E0A
:100130000220056E000E0320066E81CFE5FF04C08D
:10014000E9FF05C0F3FF0650BCEC07F00150020FB9
:10015000046E000E0220056E000E0320066E82CF94
:10016000E5FF04C0E9FF05C0F3FF0650BCEC07F053
:10017000030E0126000E0222000E032283CFE5FFAC
:1001800001C0E9FF02C0F3FF0350BCEC07F0010E11
:10019000006E01D0006AFF0E02012E6F005014E0C5
:1001A000010E016E800E006E800E026E000EE56E76
:1001B000A20EE56E0250E56E0150E56E0050E56E50
:1001C000D9EC03F0050EE126E4CF06F0E4CF05F00C
:1001D000E4CF04F0E4CF03F0E4CF02F0E4CF01F089
:1001E000E4CF00F0E4CFD9FF1200D9CFE5FFE1CF93
:1001F000D9FF00C0E5FF01C0E5FF02C0E5FF03C075
:10020000E5FF04C0E5FF05C0E5FF06C0E5FF07C048
:10021000E5FF020EDBCF00F0030EDBCF01F0040E92
:10022000DBCF02F0FF0E036E046E020E066E220E8E
:10023000056E800E076E0750E56E0650E56E0550A0
:10024000E56EADEC02F0030EE126020122510F0B28
:10025000056E05501CE0020E066E220E056E800E25
:10026000076E0750E56E0650E56E0550E56EDBEC57
:1002700001F0056E030EE12605C0E5FF00C0E9FFB1
:1002800001C0F3FF0250BCEC07F0036A046A020EDF
:10029000016E220E006E800E026E0250E56E01505D
:1002A000E56E0050E56E39EC04F0030EE12604C063
:1002B000F3FF0350E4CF07F0E4CF06F0E4CF05F0FE
:1002C000E4CF04F0E4CF03F0E4CF02F0E4CF01F098
:1002D000E4CF00F0E4CFD9FF1200D9CFE5FFE1CFA2
:1002E000D9FF00C0E5FF01C0E5FF02C0E5FF03C084
:1002F000E5FF04C0E5FF05C0E5FF06C0E5FF07C058
:10030000E5FF08C0E5FF020EDBCF00F0030EDBCFF8
:1003100001F0040EDBCF02F0050EDBCF03F000503E
:10032000010F046E000E0120056E000E0220066E05
:1003300000C0E9FF01C0F3FF025062EC07F00F0BB1
:10034000076E0728086E08500F0BF46E00C0E9FF17
:1003500001C0F3FF025062EC07F0F00BF410E56E01
:1003600000C0E9FF01C0F3FF0250BCEC07F00750EA
:100370000426E86A0522E86A062203C0E5FF04C0F5
:10038000E9FF05C0F3FF0650BCEC07F0E4CF08F02E
:10039000E4CF07F0E4CF06F0E4CF05F0E4CF04F0BB
:1003A000E4CF03F0E4CF02F0E4CF01F0E4CF00F0BB
:1003B000E4CFD9FF1200D9CFE5FFE1CFD9FF00C0CC
:1003C000E5FF01C0E5FF02C0E5FF03C0E5FF04C093
:1003D000E5FF05C0E5FF06C0E5FF020EDBCF00F03C
:1003E000030EDBCF01F0040EDBCF02F00050010F53
:1003F000036E000E0120046E000E0220056E00C088
:10040000E9FF01C0F3FF025062EC07F00F0B066E2C
:10041000060606500F0BF46E00C0E9FF01C0F3FFA3
:10042000025062EC07F0F00BF410E56E00C0E9FF3B
:1004300001C0F3FF0250BCEC07F000C0E9FF01C0AF
:10044000F3FF025062EC07F00F0B006E0050032622
:10045000E86A0422E86A052203C0E9FF04C0F3FF4A
:10046000055062EC07F0036E0350E4CF06F0E4CFD2
:1004700005F0E4CF04F0E4CF03F0E4CF02F0E4CFE2
:1004800001F0E4CF00F0E4CFD9FF1200D9CFE5FFAF
:10049000E1CFD9FF00C0E5FF01C0E5FF02C0E5FFE5
:1004A00003C0E5FF04C0E5FF05C0E5FF06C0E5FFAA
:1004B000020EDBCF00F0030EDBCF01F0040EDBCF2A
:1004C00002F082A2FED782B4FED78C8682A40CD022
:1004D00083A0FCD78C96C4EC06F0036EF3CF04F037
:1004E00004C0F3FF035028D08C96500E036E046AAC
:1004F000035004101FE082A0FBD782B0FED779EC36
:1005000006F0056EF3CF06F005C0E5FF06C0F4FF68
:1005100000C0E9FF01C0F3FF02509CEC07F0020E9F
:100520000026000E0122000E0222FF0E0326D8A094
:100530000406DED7F36AE86AE4CF06F0E4CF05F0FC
:10054000E4CF04F0E4CF03F0E4CF02F0E4CF01F015
:10055000E4CF00F0E4CFD9FF1200D9CFE5FFE1CF1F
:10056000D9FF00C0E5FF01C0E5FF02C0E5FF03C001
:10057000E5FF04C0E5FF05C0E5FF06C0E5FF020E8C
:10058000DBCF00F0030EDBCF01F0040EDBCF02F077
:1005900000C003F001C004F002C005F0066AF2BE1C
:1005A000062A0650010BE838F46E03C0E9FF04C0C8
:1005B000F3FF055062EC07F0EF0BF410E56E03C09B
:1005C000E9FF04C0F3FF0550BCEC07F0036AF2BC7E
:1005D000032A0350010BE838E844F46E00C0E9FF39
:1005E00001C0F3FF025062EC07F0DF0BF410E56E80
:1005F00000C0E9FF01C0F3FF0250BCEC07F0F29E1F
:10060000F29CE4CF06F0E4CF05F0E4CF04F0E4CFB1
:1006100003F0E4CF02F0E4CF01F0E4CF00F0E4CF48
:10062000D9FF1200D9CFE5FFE1CFD9FF00C0E5FF28
:1006300001C0E5FF02C0E5FF03C0E5FF04C0E5FF20
:1006400005C0E5FF020EDBCF00F0030EDBCF01F0AB
:10065000040EDBCF02F000C003F001C004F002C0C2
:1006600005F003C0E9FF04C0F3FF055062EC07F09A
:10067000F00BE56E03C0E9FF04C0F3FF0550BCECCE
:1006800007F000C003F001C004F002C005F003C091
:10069000E9FF04C0F3FF055062EC07F0E89CE56E4B
:1006A00003C0E9FF04C0F3FF0550BCEC07F000C035
:1006B000E9FF01C0F3FF025062EC07F0E89EE56E2F
:1006C00000C0E9FF01C0F3FF0250BCEC07F0E4CF2B
:1006D00005F0E4CF04F0E4CF03F0E4CF02F0E4CF80
:1006E00001F0E4CF00F0E4CFD9FF1200D9CFE5FF4D
:1006F000E1CFD9FF00C0E5FF01C0E5FF02C0E5FF83
:1007000003C0E5FF04C0E5FF006A016A0050D8A4F9
:1007100042D0B2EC07F0020E036E220E026E800E83
:10072000046E0450E56E0350E56E0250E56EADECCC
:1007300002F0030EE126020122510F0B026E02505D
:1007400014E0020E036E220E026E800E046E045040
:10075000E56E0350E56E0250E56EDBEC01F0016ED4
:10076000030EE126010E006E05D0020122AD02D07B
:10077000010E006E020E036E220E026E800E046EDB
:100780000450E56E0350E56E0250E56E39EC04F05E
:10079000030EE126BBD70150E4CF04F0E4CF03F011
:1007A000E4CF02F0E4CF01F0E4CF00F0E4CFD9FFD2
:1007B0001200D9CFE5FFE1CFD9FF00C0E5FF01C0AE
:1007C000E5FF02C0E5FF03C0E5FF04C0E5FF05C08B
:1007D000E5FF06C0E5FF07C0E5FF08C0E5FF09C06B
:1007E000E5FF020EDBCF00F0030EDBCF01F0040EBD
:1007F000DBCF02F0050EDBCF03F0060EDBCF04F0FB
:10080000056A066A0450065C02E10350055C1AE2C0
:1008100005500024076E06500120086EE86A022089
:10082000096E07C0E9FF08C0F3FF095062EC07F04A
:10083000076E0750E56E73EC07F0E12A052AD8B081
:10084000062AE0D7E4CF09F0E4CF08F0E4CF07F0C0
:10085000E4CF06F0E4CF05F0E4CF04F0E4CF03F0FA
:10086000E4CF02F0E4CF01F0E4CF00F0E4CFD9FF11
:100870001200D9CFE5FFE1CFD9FF00C0E5FF01C0ED
:10088000E5FF02C0E5FF03C0E5FF04C0E5FF05C0CA
:10089000E5FF020EDBCF00F0030EDBCF01F0040E0C
:1008A000DBCF02F000C003F001C004F002C005F08D
:1008B00003C0E9FF04C0F3FF055062EC07F0E8381D
:1008C000E840010B036E0350010BE840E840F46E72
:1008D000F250BF0BF410F26E00C0E9FF01C0F3FF4D
:1008E000025062EC07F0E838010B006E0050010B7B
:1008F000E840F46EF2507F0BF410F26EE4CF05F096
:10090000E4CF04F0E4CF03F0E4CF02F0E4CF01F051
:10091000E4CF00F0E4CFD9FF12008C0EF66E0F0E7C
:10092000F76E000EF86E0900F550056E0900F550DF
:10093000066E055002E106503BE00900F550006EDE
:100940000900F550016E0900F550026E090009001A
:10095000F550E96E0900F550EA6E0900090009003A
:10096000F550036E0900F550046E09000900F6CF3A
:1009700007F0F7CF08F0F8CF09F000C0F6FF01C08C
:10098000F7FF02C0F8FF035002E1045007E009003E
:10099000F550EE6E0306F8E20406F9D707C0F6FF3D
:1009A00008C0F7FF09C0F8FF0506C4E20606C5D770
:1009B0001200D9CFE5FFE1CFD9FF00C0E5FF01C0AC
:1009C000E5FF02C0E5FF9EBA01D02BD0ABA204D058
:1009D000AE500201228D24D0ABA405D0AB98AB88D9
:1009E0000201228D1DD0020122510F0B006E00501A
:1009F000800F780F13E2020E016E220E006E800E41
:100A0000026EAE50E56E0250E56E0150E56E00508C
:100A1000E56E6DEC01F0040EE12602D00201228F9A
:100A20009E9AE4CF02F0E4CF01F0E4CF00F0E4CFEF
:100A3000D9FF1200D9CFE5FFE1CFD9FF00C0E5FF14
:100A4000020EDBCF00F0070E005C2EE201C0E5FFD6
:100A500002C0E5FF026A00340236E8340236FC0BBD
:100A6000016E000EFB6E0A0EFA6E820E0126025017
:100A7000FA22D8B0FB2A0150E4CF02F0E4CF01F013
:100A8000F96E4FEF05F054EF05F054EF05F054EF19
:100A900005F052EF05F052EF05F052EF05F0D39E4E
:100AA000030002D0D38E0300E4CF00F0E4CFD9FFDF
:100AB00012000201306B0201316B3FEC07F0A2EC37
:100AC00006F0FDEC06F091EC05F002013051020158
:100AD000311124E1E3EC06F0020E016E320E006EDD
:100AE000800E026E0250E56E0150E56E0050E56E1C
:100AF000F5EC00F0006EF3CF01F0030EE12600509C
:100B0000FF0A03E10150FF0AE0E002013251E56E05
:100B1000A8EC07F0E12A15EC00F0D7D7F36AE86AF1
:100B20001200D9CFE5FFE1CFD9FF00C0E5FF01C03A
:100B3000E5FF02C0E5FF020E016E220E006E800E80
:100B4000026E0250E56E0150E56E0050E56E12EC4B
:100B500003F0030EE126949C948EAC6AAC8AAB6AD7
:100B6000AB8EAB889E9A9E989D8A9D980C0EAF6E18
:100B7000200EAC6EB86AE4CF02F0E4CF01F0E4CF0F
:100B800000F0E4CFD9FF1200D9CFE5FFE1CFD9FFC4
:100B900000C0E5FF01C0E5FF02C0E5FF03C0E5FFBF
:100BA000020EDBCF00F0030EDBCF01F001C003F03B
:100BB00000C002F0036A0250E56E73EC07F0E12A10
:100BC0000150006E016A016A0050E56E73EC07F097
:100BD000E12AE4CF03F0E4CF02F0E4CF01F0E4CF68
:100BE00000F0E4CFD9FF1200E8CFE5FFD8CFE5FF52
:100BF000E0CFE5FFF3CFE5FFF4CFE5FFE9CFE5FF79
:100C0000EACFE5FFFACFE5FFFBCFE5FFD9CFE5FF60
:100C1000E1CFD9FFD9EC04F0E4CFD9FFE4CFFBFF5B
:100C2000E4CFFAFFE4CFEAFFE4CFE9FFE4CFF4FF3B
:100C3000E4CFF3FFE4CFE0FFE4CFD8FFE4CFE8FF59
:100C40001000D9CFE5FFE1CFD9FF00C0E5FF01C01B
:100C5000E5FF02C0E5FF03C0E5FF020EDBCF00F0B9
:100C6000030EDBCF01F0040EDBCF02F0036AF2BE0D
:100C7000032A03C0E5FF00C0E9FF01C0F3FF0250F3
:100C8000BCEC07F0E4CF03F0E4CF02F0E4CF01F0D6
:100C9000E4CF00F0E4CFD9FF1200D9CFE5FFE1CFD8
:100CA000D9FF00C0E5FF01C0E5FF02C0E5FF03C0BA
:100CB000E5FF020EDBCF00F0030EDBCF01F0040EE8
:100CC000DBCF02F051EC07F0036E03C0E5FF00C07C
:100CD000E9FF01C0F3FF0250BCEC07F0E4CF03F0E2
:100CE000E4CF02F0E4CF01F0E4CF00F0E4CFD9FF8D
:100CF0001200D9CFE5FFE1CFD9FF00C0E5FF01C069
:100D0000E5FF02C0E5FF03C0E5FF80CF00F0016A08
:100D10000050036E026A81CF00F0016A0050021297
:100D2000015003120F0E031603C0F3FF0250E4CF6D
:100D300003F0E4CF02F0E4CF01F0E4CF00F0E4CF21
:100D4000D9FF1200D9CFE5FFE1CFD9FF00C0E5FF01
:100D500001C0E5FFD06AF26AF16AD09EF28CF28E91
:100D6000F190E80E006E030E016E0000FF0E0026EB
:100D7000D8A0010600500110F8E1E4CF01F0E4CF63
:100D800000F0E4CFD9FF1200D9CFE5FFE1CFD9FFC2
:100D900000C0E5FF01C0E5FF006A016A83A003D03F
:100DA000010E006E016A83A201D0008283A401D0EB
:100DB000008401C0F3FF0050E4CF01F0E4CF00F065
:100DC000E4CFD9FF1200D9CFE5FFE1CFD9FF02016F
:100DD0002B2B02E302012C2B400E02012C5D03E1C0
:100DE000000E02012B5D06E3010E02012D1B926A2B
:100DF0002DC289FFE4CFD9FF1200D9CFE5FFE1CFA3
:100E0000D9FFC26A0F0EC16EC06A656A010E936E89
:100E1000010E926E010E956E948094829484959644
:100E2000FF0E02012E6FE4CFD9FF1200D9CFE5FFEC
:100E3000E1CFD9FF00C0E5FF020EDBCF00F000508C
:100E4000010BE840F46EF2507F0BF410F26EE4CF29
:100E500000F0E4CFD9FF1200D9CFE5FFE1CFD9FFF1
:100E600000C0E5FF020EDBCF00F00050E56E73EC32
:100E700007F0E12AE4CF00F0E4CFD9FF1200D9CF88
:100E8000E5FFE1CFD9FFD3508F0B7009D36ED3505C
:100E9000FC0B0209D36ED38ED3A4FED7E4CFD9FFC7
:100EA0001200D9CFE5FFE1CFD9FF00C0E5FF9EAA30
:100EB000FED7AECF00F09E9A0050E4CF00F0E4CF12
:100EC000D9FF1200E8AE04D0F3CFEAFFEE501200D3
:100ED000E8BC08D0E9CFF6FFF3CFF7FFF86E0900C2
:100EE000F55012001200D9CFE5FFE1CFD9FF020E75
:100EF000DBCFADFF0000000000009EA8FED7E4CFCE
:100F0000D9FF1200D9CFE5FFE1CFD9FF040EE56E7E
:100F10001AEC05F0E12A0300FED7E4CFD9FF120056
:100F200011EE7FF021EE7FF0F86AA68EA69C8DEC84
:100F300004F059EC05F0FFD7E8AE07D0F3CFEAFF95
:100F4000E4CFEEFFF4CFEEFF1200E8AC1200120087
:100F5000D9CFE5FFE1CFD9FF020EDBCF2EF2E4CFF0
:100F6000D9FF1200D9CFE5FFE1CFD9FFF28CF28E85
:100F70000300E4CFD9FF1200E8AE05D0F3CFEAFFBB
:100F8000E4CFEEFF1200E8AC1200120001009A0F4D
:100F900000002B02000005000000000000FF000020
:020000040030CA
:0E000000100A0000FF0180FFFFFFFFFFFFFF5F
:00000001FF
